{
  "_format": "hh-sol-artifact-1",
  "contractName": "SBTFactory",
  "sourceName": "contracts/SBTFactory.sol",
  "abi": [
    {
      "inputs": [],
      "stateMutability": "nonpayable",
      "type": "constructor"
    },
    {
      "anonymous": false,
      "inputs": [
        {
          "indexed": false,
          "internalType": "address",
          "name": "acc",
          "type": "address"
        },
        {
          "indexed": false,
          "internalType": "string",
          "name": "cid",
          "type": "string"
        }
      ],
      "name": "AddedStudent",
      "type": "event"
    },
    {
      "inputs": [
        {
          "internalType": "address",
          "name": "acc",
          "type": "address"
        },
        {
          "internalType": "string",
          "name": "cid",
          "type": "string"
        }
      ],
      "name": "addStudent",
      "outputs": [],
      "stateMutability": "nonpayable",
      "type": "function"
    },
    {
      "inputs": [
        {
          "internalType": "address",
          "name": "acc",
          "type": "address"
        }
      ],
      "name": "searchStudent",
      "outputs": [
        {
          "internalType": "string",
          "name": "",
          "type": "string"
        }
      ],
      "stateMutability": "view",
      "type": "function"
    },
    {
      "inputs": [],
      "name": "uni",
      "outputs": [
        {
          "internalType": "address",
          "name": "",
          "type": "address"
        }
      ],
      "stateMutability": "view",
      "type": "function"
    }
  ],
  "bytecode": "0x608060405234801561001057600080fd5b50336000806101000a81548173ffffffffffffffffffffffffffffffffffffffff021916908373ffffffffffffffffffffffffffffffffffffffff160217905550610adf806100606000396000f3fe608060405234801561001057600080fd5b50600436106100415760003560e01c80635e8b809114610046578063d3d3df3914610062578063edc9af9514610092575b600080fd5b610060600480360381019061005b9190610597565b6100b0565b005b61007c600480360381019061007791906105f3565b6101f5565b604051610089919061069f565b60405180910390f35b61009a6102d8565b6040516100a791906106d0565b60405180910390f35b60008054906101000a900473ffffffffffffffffffffffffffffffffffffffff1673ffffffffffffffffffffffffffffffffffffffff163373ffffffffffffffffffffffffffffffffffffffff161461010857600080fd5b6001829080600181540180825580915050600190039060005260206000200160009091909190916101000a81548173ffffffffffffffffffffffffffffffffffffffff021916908373ffffffffffffffffffffffffffffffffffffffff16021790555080600260008473ffffffffffffffffffffffffffffffffffffffff1673ffffffffffffffffffffffffffffffffffffffff16815260200190815260200160002090816101b79190610901565b507fd9b0b9c42f9e855a2237a6185eb185b01a5587f499501adcf1e14eaec14ea77f82826040516101e99291906109d3565b60405180910390a15050565b6060610200826102fc565b61020957600080fd5b600260008373ffffffffffffffffffffffffffffffffffffffff1673ffffffffffffffffffffffffffffffffffffffff16815260200190815260200160002080546102539061071a565b80601f016020809104026020016040519081016040528092919081815260200182805461027f9061071a565b80156102cc5780601f106102a1576101008083540402835291602001916102cc565b820191906000526020600020905b8154815290600101906020018083116102af57829003601f168201915b50505050509050919050565b60008054906101000a900473ffffffffffffffffffffffffffffffffffffffff1681565b60008173ffffffffffffffffffffffffffffffffffffffff163373ffffffffffffffffffffffffffffffffffffffff161461033657600080fd5b60005b6001805490508110156103d4578273ffffffffffffffffffffffffffffffffffffffff166001828154811061037157610370610a03565b5b9060005260206000200160009054906101000a900473ffffffffffffffffffffffffffffffffffffffff1673ffffffffffffffffffffffffffffffffffffffff16036103c15760019150506103da565b80806103cc90610a61565b915050610339565b50600090505b919050565b6000604051905090565b600080fd5b600080fd5b600073ffffffffffffffffffffffffffffffffffffffff82169050919050565b600061041e826103f3565b9050919050565b61042e81610413565b811461043957600080fd5b50565b60008135905061044b81610425565b92915050565b600080fd5b600080fd5b6000601f19601f8301169050919050565b7f4e487b7100000000000000000000000000000000000000000000000000000000600052604160045260246000fd5b6104a48261045b565b810181811067ffffffffffffffff821117156104c3576104c261046c565b5b80604052505050565b60006104d66103df565b90506104e2828261049b565b919050565b600067ffffffffffffffff8211156105025761050161046c565b5b61050b8261045b565b9050602081019050919050565b82818337600083830152505050565b600061053a610535846104e7565b6104cc565b90508281526020810184848401111561055657610555610456565b5b610561848285610518565b509392505050565b600082601f83011261057e5761057d610451565b5b813561058e848260208601610527565b91505092915050565b600080604083850312156105ae576105ad6103e9565b5b60006105bc8582860161043c565b925050602083013567ffffffffffffffff8111156105dd576105dc6103ee565b5b6105e985828601610569565b9150509250929050565b600060208284031215610609576106086103e9565b5b60006106178482850161043c565b91505092915050565b600081519050919050565b600082825260208201905092915050565b60005b8381101561065a57808201518184015260208101905061063f565b60008484015250505050565b600061067182610620565b61067b818561062b565b935061068b81856020860161063c565b6106948161045b565b840191505092915050565b600060208201905081810360008301526106b98184610666565b905092915050565b6106ca81610413565b82525050565b60006020820190506106e560008301846106c1565b92915050565b7f4e487b7100000000000000000000000000000000000000000000000000000000600052602260045260246000fd5b6000600282049050600182168061073257607f821691505b602082108103610745576107446106eb565b5b50919050565b60008190508160005260206000209050919050565b60006020601f8301049050919050565b600082821b905092915050565b6000600883026107ad7fffffffffffffffffffffffffffffffffffffffffffffffffffffffffffffffff82610770565b6107b78683610770565b95508019841693508086168417925050509392505050565b6000819050919050565b6000819050919050565b60006107fe6107f96107f4846107cf565b6107d9565b6107cf565b9050919050565b6000819050919050565b610818836107e3565b61082c61082482610805565b84845461077d565b825550505050565b600090565b610841610834565b61084c81848461080f565b505050565b5b8181101561087057610865600082610839565b600181019050610852565b5050565b601f8211156108b5576108868161074b565b61088f84610760565b8101602085101561089e578190505b6108b26108aa85610760565b830182610851565b50505b505050565b600082821c905092915050565b60006108d8600019846008026108ba565b1980831691505092915050565b60006108f183836108c7565b9150826002028217905092915050565b61090a82610620565b67ffffffffffffffff8111156109235761092261046c565b5b61092d825461071a565b610938828285610874565b600060209050601f83116001811461096b5760008415610959578287015190505b61096385826108e5565b8655506109cb565b601f1984166109798661074b565b60005b828110156109a15784890151825560018201915060208501945060208101905061097c565b868310156109be57848901516109ba601f8916826108c7565b8355505b6001600288020188555050505b505050505050565b60006040820190506109e860008301856106c1565b81810360208301526109fa8184610666565b90509392505050565b7f4e487b7100000000000000000000000000000000000000000000000000000000600052603260045260246000fd5b7f4e487b7100000000000000000000000000000000000000000000000000000000600052601160045260246000fd5b6000610a6c826107cf565b91507fffffffffffffffffffffffffffffffffffffffffffffffffffffffffffffffff8203610a9e57610a9d610a32565b5b60018201905091905056fea2646970667358221220dbe6195dec9af6578ec1b401a1fab1a0ddee6c5c4a9e635b5f75a3ca05c580e864736f6c63430008120033",
  "linkReferences": {},
  "deployedLinkReferences": {}
}